:100000000C9473000C949B000C949B000C949B002C
:100010000C949B000C949B000C949B000C949B00F4
:100020000C949B000C949B000C949B000C949B00E4
:100030000C949B000C949B000C949B000C949B00D4
:100040000C94470B0C949B000C949B000C949B000D
:100050000C949B000C949B000C949B000C949B00B4
:100060000C949B000C949B000000000023002600D1
:10007000290000000000250028002B0004040404CF
:100080000404040402020202020203030303030342
:10009000010204081020408001020408102001021F
:1000A00004081020AB0055007C0084004B00B50014
:1000B0001B00E5000017E8000047B8000077AB0020
:1000C00000ABAB000055AB000022DD000E00F200DB
:1000D0003E00C20071008F00A1005F00D0002F0021
:1000E000F90700009B0B11241FBECFEFD8E0DEBF45
:1000F000CDBF11E0A0E0B1E0E0EAF3E202C005907C
:100100000D92AE32B107D9F725E0AEE2B1E001C001
:100110001D92A432B207E1F710E0C3E7D0E004C0BB
:100120002197FE010E94C311C237D107C9F70E946F
:10013000270C0C94CE110C94000080E093E023ED8A
:1001400031E040E0D90180FF03C001C04D934D93E1
:100150008250E0F79040D0F7C9010895DB0180316B
:10016000B0F4EFEFF0E09F01281B3109C901F9015C
:10017000EE0FFF1FE80FF91FED52FE4F8C918083A9
:1001800011968C911197818312968C918283089598
:10019000DC0117962C91179730E0F901E057FF4FDB
:1001A000E4911696EC93169724583F4FF9018491E9
:1001B000E82FF0E0EE0FFF1FEE58FF4F859194916E
:1001C00013969C938E931297F9012491E22FF0E0FD
:1001D000EE0FFF1FE859FF4F8591949115969C9360
:1001E0008E931497089580E991E008959FB7F8944D
:1001F00040919B0150919C0160919D0170919E01E5
:1002000086B5A89B06C08F3F21F04F5F5F4F6F4FB1
:100210007F4F9FBF2227342F452F562F280F311D88
:10022000411D511DA3E0B0E00E94411008958F923E
:100230009F92AF92BF92CF92DF92EF92FF926B01AB
:100240007C010E94F6004B015C010E94F6006819D7
:1002500079098A099B09683E734081059105A8F3D5
:1002600081E0C81AD108E108F10828EE820E23E0E7
:10027000921EA11CB11CC114D104E104F10429F7A0
:10028000FF90EF90DF90CF90BF90AF909F908F90B6
:1002900008952FB7F894609197017091980180911B
:1002A000990190919A012FBF08954F925F926F929A
:1002B0007F929F92AF92BF92CF92DF92EF92FF9286
:1002C0000F931F93CF93DF9300D01F92CDB7DEB76C
:1002D000F090D3048091D6049091D704A091D804D3
:1002E000B091D904892B8A2B8B2BD9F00E94F60070
:1002F0000091CF011091D0012091D1013091D20114
:10030000601B710B820B930B0091D6041091D704E4
:100310002091D8043091D9046017710782079307A0
:10032000C8F20E94F6006093CF017093D0018093D1
:10033000D1019093D201E091DE04F091DF04309777
:1003400059F04091DA045091DB046091DC04709123
:10035000DD048F2D0995F82E0091CD011091CE016D
:100360004F2C512C712C612C0115110509F45EC024
:10037000D8011C96EC901C978091D4049091D504E0
:100380008436910510F41C961C92D801ED91FC91D5
:10039000A280B38019821A821B82FF2089F1F801A2
:1003A0003696D12CC12C2191222319F192809920CB
:1003B00001F130E050E040E02F5F3F4F4F4F5F4F83
:1003C000C301B2010E9478119B01AC01892D90E01C
:1003D000B0E0A0E0BC01CD016F5F7F4F8F4F9F4F1A
:1003E0000E947811A1E0B0E0AC0FBD1FAC0DBD1DA7
:1003F0008C93BFEFCB1ADB0A83E0C816D10499F6C1
:10040000D8011D964D915C911E9712966D917C912D
:100410009E012F5F3F4FC801F5010995D8011C9639
:10042000EC921C9714960D911C919ECF8091CB015C
:100430009091CC018C010F5F1F4F1093CC01009362
:10044000CB0149978CF10E9449019B01AC0188EED8
:1004500093E0089FB001099F700D189F700D112443
:10046000072E000C880B990BC090C701D090C801D3
:10047000E090C901F090CA012C193D094E095F09AD
:100480000E9454103093D5042093D4041092CC01D0
:100490001092CB010E9449016093C7017093C8017B
:1004A0008093C9019093CA010F900F900F90DF9134
:1004B000CF911F910F91FF90EF90DF90CF90BF9061
:1004C000AF909F907F906F905F904F9008950F93A3
:1004D0001F934091130546FD1CC02091150528303F
:1004E00008F0CAC089B190E002C0959587952A9519
:1004F000E2F7817045FB992790F947FB442740F9C3
:1005000049278427909112059E7F80FF91609093E8
:1005100012058091120580FFE6C082FDE4C081FDD6
:10052000BAC08260809312050E9449016093200541
:1005300070932105809322059093230580911205E5
:1005400080FD2BC082FF6DC08B7F8093120583FDE1
:1005500005C080911E058F5F80931E058091120556
:10056000877F809312058091130581608093130526
:100570000E94490160932005709321058093220514
:1005800090932305809113058B7F8093130583FF40
:1005900004C0877F8061809313058091120582FFDC
:1005A00040C080FF3EC00E9449010091200510918B
:1005B00021052091220530912305AB01BC01401B90
:1005C000510B620B730B8091180590911905B0E0E7
:1005D000A0E0481759076A077B0718F180911205B8
:1005E00083FD1FC0877190911E059F5F9295990FA3
:1005F000907E8860892B8093120510921E051092C0
:100600001F05809113058460877F809313050E94E6
:1006100049016093200570932105809322059093F2
:1006200023050E9449010091200510912105209188
:10063000220530912305AB01BC01401B510B620B1D
:10064000730B80911A0590911B05B0E0A0E048174C
:1006500059076A077B0768F080911E05882349F0D7
:1006600080931F0510921E05809112058061809372
:1006700012051F910F9108952E3028F483B190E058
:100680002850330B31CF243108F034CF86B190E0BD
:100690002E50330B29CF0E94490100912005109163
:1006A00021052091220530912305AB01BC01401B9F
:1006B000510B620B730B8091160590911705B0E0FA
:1006C000A0E0481759076A077B0708F437CF8091E5
:1006D0001205846080931205809113058260886002
:1006E000809313052BCF809112058D7F8093120587
:1006F00025CF2F923F924F925F926F927F928F926F
:100700009F92AF92BF92CF92DF92EF92FF920F93A0
:100710001F93CF93DF93CDB7DEB729970FB6F89429
:10072000DEBF0FBECDBF898749835A836B837C832D
:100730000091CD011091CE01BDE78B2E912CA12C03
:10074000B12C0115110509F467C0D801ED91FC9198
:100750000084F185E02DC80109951C01D80112968D
:10076000ED91FC91C12CD12C7601412C512C320100
:1007700020E030E0A901009791F06081260F311D43
:10078000411D511D6181460E511C611C711C62810D
:10079000C60ED11CE11CF11C01973396ECCFABE4E3
:1007A000B0E00E9441106D837E838F839887A30100
:1007B00092010E9441102B013C01A70196010E9469
:1007C00041102D813E814F815885C32ED42EE52EB8
:1007D000FF2445E0429D9001439D300D1124C20E3F
:1007E000D31EE11CF11C8C0C9D1CAE1CBF1C452CA7
:1007F000562C672C7724840C951CA61CB71C472FFD
:10080000582F692F7727840E951EA61EB71ED80174
:1008100014960D911C9195CFB985CB2ED12CF12C2E
:10082000E12CA7019601C501B4010E947811872E21
:10083000982EA92EBB2429813A814B815C81821696
:100840009306A406B50668F0A701960169817A812E
:100850008B819C810E947811A50194010E94541003
:100860002987898529960FB6F894DEBF0FBECDBFC4
:10087000DF91CF911F910F91FF90EF90DF90CF907C
:10088000BF90AF909F908F907F906F905F904F90B0
:100890003F902F900895FC01A281B3819C918681A5
:1008A0002681982381E0921380E00895FC018681DF
:1008B0000280F381E02D90818095892380830895C3
:1008C000FC0196810280F381E02D8081892B808359
:1008D00008950F931F93CF93DF93209195012F5F7E
:1008E000322F37703093950120FF2BC020E831FD67
:1008F0002064347009F02062205FFC01EC01239633
:1009000000E011E06485662329F070E0C8010E94D0
:1009100094116F5F6187322F369F030E30E0311DD7
:100920001124311110C01682662311F061506187C5
:100930003196EC17FD0731F7DF91CF911F910F91A1
:10094000089520E0D4CF31503683EECF2F923F92DE
:100950004F925F926F927F928F929F92AF92BF92CF
:10096000CF92DF92EF92FF920F931F93CF93DF937B
:1009700000D000D0CDB7DEB71C017C836B830E9412
:10098000F600D1011F962D913C91621B730B6A30CA
:100990007105A8F3F894AB81BC81ED91FC9111979E
:1009A0005BB158604BB1477F4BB91A96CC901A9700
:1009B00017968C91BC2DB81B8B2FAB81BC811796E1
:1009C0008C9317971F96BC901F9712962D913C9170
:1009D00013973A8329831D966C911D971C967C91E1
:1009E0001C971E96DC901E976F5F7F5FD3941696C0
:1009F0009C91169718963C9118971996AC90199758
:100A00001B96EC901181A981BA8120E0F32E022F70
:100A1000322F3181112788943111380F08F43FEFBC
:100A20008195889460FD130F1795889461FD130FCD
:100A30001795889462FD130F1795889463FD130F23
:100A40001795889464FD130F1795889465FD130F0F
:100A50001795889466FD130F1795889467FD130FFB
:100A600017958894232F6111212F8C0D122F002CA4
:100A70005BB900C0002C17FF4BB930812227889446
:100A800000C000C000C000C04BB93111390F00C018
:100A900000C0002C5BB900C0002C16FF4BB908F455
:100AA0003FEF9195889400C000C000C000C04BB9D2
:100AB00070FD230F00C000C0002C5BB900C0002CEB
:100AC00015FF4BB92795889471FD230F00C000C016
:100AD00000C000C04BB92795889400C000C0002C0E
:100AE0005BB900C0002C14FF4BB972FD230F279592
:100AF000889400C000C000C000C04BB973FD230F34
:100B000000C000C0002C5BB900C0002C13FF4BB923
:100B10002795889474FD230F00C000C000C000C05A
:100B20004BB92795889400C000C0002C5BB900C069
:100B3000002C12FF4BB975FD230F2795889400C038
:100B400000C000C000C04BB976FD230F00C000C03C
:100B5000002C5BB900C0002C11FF4BB9279588947D
:100B600077FD230F00C000C000C000C04BB927951F
:100B7000889400C000C0002C5BB900C0002C10FF9E
:100B80004BB9132F7111122F9A0D00C000C000C075
:100B900000C04BB900C000C000C0002C5BB900C051
:100BA000002C17FF4BB932812227889400C000C067
:100BB00000C000C04BB931113F0D00C000C0002C77
:100BC0005BB900C0002C16FF4BB908F43FEFEB0DEA
:100BD000F11D00C000C000C000C04BB9D0FC230F05
:100BE00000C000C0002C5BB900C0002C15FF4BB941
:100BF00027958894D1FC230F00C000C000C000C01E
:100C00004BB92795889400C000C0002C5BB900C088
:100C1000002C14FF4BB9D2FC230F2795889400C0F9
:100C200000C000C000C04BB9D3FC230F00C000C0FF
:100C3000002C5BB900C0002C13FF4BB9279588949A
:100C4000D4FC230F00C000C000C000C04BB92795E2
:100C5000889400C000C0002C5BB900C0002C12FFBB
:100C60004BB9D5FC230F2795889400C000C000C065
:100C700000C04BB9D6FC230F00C000C0002C5BB9EC
:100C800000C0002C11FF4BB927958894D7FC230F87
:100C900000C000C000C000C04BB92795889400C0B8
:100CA00000C0002C5BB900C0002C10FF4BB9132F03
:100CB000D110122FF19400C000C000C000C04BB989
:100CC000FE0C00C000C000C05BB900C0002C17FFC4
:100CD0004BB931812227889400C000C000C000C0F9
:100CE0004BB93111380F00C000C0002C5BB900C0F7
:100CF000002C16FF4BB908F43FEF8195889400C093
:100D000000C000C000C04BB960FD230F00C000C090
:100D1000002C5BB900C0002C15FF4BB927958894B7
:100D200061FD230F00C000C000C000C04BB9279573
:100D3000889400C000C0002C5BB900C0002C14FFD8
:100D40004BB962FD230F2795889400C000C000C0F6
:100D500000C04BB963FD230F00C000C0002C5BB97D
:100D600000C0002C13FF4BB92795889464FD230F16
:100D700000C000C000C000C04BB92795889400C0D7
:100D800000C0002C5BB900C0002C12FF4BB965FD00
:100D9000230F2795889400C000C000C000C04BB945
:100DA00066FD230F00C000C0002C5BB900C0002C02
:100DB00011FF4BB92795889467FD230F00C000C031
:100DC00000C000C04BB92795889400C000C0002C1B
:100DD0005BB900C0002C10FF4BB9132F6111122F0B
:100DE0008C0D00C000C000C000C04BB900C01197FE
:100DF00009F03ECE20E732E0A981BA810E94A81115
:100E000044E1442E512C612C712CA30192010E94CB
:100E1000541049015A01F12CE12CB7018AE9A9814A
:100E2000BA81A89F0A0E611DB89F600D711D112423
:100E30006B0F711D90E080E054E0660F771F881FF4
:100E4000991F5A95D1F7A30192010E942210DA014D
:100E5000C901880D991DAA1DBB1D893EE3E09E07AF
:100E6000A105B10508F434C0885E9340A109B10919
:100E700022E0B695A795979587952A95D1F727E013
:100E8000829F080EE11C929FE00CF11C1124E90ED8
:100E9000F11C2091940130E0820F931F8E0D9F1D55
:100EA00040919701509198016091990170919A0138
:100EB000292F3327420F531F611D711D4093970146
:100EC000509398016093990170939A0180939401D3
:100ED00078940E94F600D10150967C936E931F97F0
:100EE0000F900F900F900F90DF91CF911F910F9166
:100EF000FF90EF90DF90CF90BF90AF909F908F903A
:100F00007F906F905F904F903F902F900895539AED
:100F100008950F931F93CF93DF93CDB7DEB76297FA
:100F20000FB6F894DEBF0FBECDBF8C01F901DC0116
:100F30001C968C917A8369835C834B835E834D839B
:100F400090819D8791819E8792819F878130F1F466
:100F5000CE0101960E94690483E0888B1A8A198A5F
:100F6000D801ED91FC910484F585E02DBE016F5F01
:100F70007F4FC801099562960FB6F894DEBF0FBE89
:100F8000CDBFDF91CF911F910F9108951C861B86D5
:100F90001A86198618861F82DFCF0F931F93CF936F
:100FA000DF93CDB7DEB762970FB6F894DEBF0FBE02
:100FB000CDBF8C01F901DC011C968C917A83698389
:100FC0005C834B835E834D8390819D8791819E8757
:100FD00092819F878130E9F4CE0101960E946904D5
:100FE000188A1A8A198AD801ED91FC910484F58532
:100FF000E02DBE016F5F7F4FC801099562960FB665
:10100000F894DEBF0FBECDBFDF91CF911F910F913E
:1010100008951C861B861A86198618861F82E0CFC3
:1010200090E080E00895FC01858596850895CF9332
:10103000DF9300D000D000D0CDB7DEB7AB011C826B
:101040001D821E82DC01ED91FC910190F081E02D6A
:1010500019821A821B829E012F5F3F4FBE016C5F77
:101060007F4F099526960FB6F894DEBF0FBECDBF11
:10107000DF91CF9108950E94C9110C9414100C9423
:101080000C102F923F924F925F926F927F928F92AD
:101090009F92AF92BF92CF92DF92EF92FF920F9307
:1010A0001F93CF93DF9300D000D01F92CDB7DEB750
:1010B00080910401882309F4B9C10E94490100917B
:1010C0009001109191012091920130919301AB0117
:1010D000BC01401B510B620B730B109103018BEF92
:1010E000810F843108F4D9C0812F012E000C990B97
:1010F000FC01EE0FFF1FE80FF91FE050FF4F818149
:1011000090E0B0E0A0E0481759076A077B0708F4B1
:101110008DC10E9449016093900170939101809369
:1011200092019093930111113AC100911005109111
:10113000110540918E0181E0840F80938E01A8E219
:101140002A2E240E66E771E098012C5F3F4F3D8305
:101150002C83C42EC2945FE0C522542F5F7084E0BC
:10116000C89E90011124F801E20FF31F859195911B
:10117000A591B4912D0166247724342C892E9A2EC2
:10118000AB2EBB24F82DE82F552309F434C0EFE033
:10119000CE1288C0F801C590D590E590F490529594
:1011A000507F352F3095242D239F020E20E0211DE6
:1011B000422E2E2D259F020E20E0211D322E340CB2
:1011C000282D239F020E20E0211D822E2D2D259FEC
:1011D000020E20E0211DF22FF80D282F239F020E72
:1011E00020E0211D822F2C2D259F020E20E0211DA5
:1011F000E82FE20F1124DB013C921196FC9311972A
:101200001296EC934B5F6D5F7F4F4211A2CF0EE2BF
:1012100011E086E7282E81E0382E9AE0892E912C65
:10122000A12CB12C22E0C22ED12CE12CF12C3FE0DC
:10123000432E512C40E1642E712CF80187E0248567
:10124000358537872687815032978111F8CF0E94E4
:10125000B40FA50194010E94221068307105810528
:101260009105C4F1F8018089918982309105F8F0E7
:10127000049780F50E94B40FA70196010E942210E6
:1012800021E030E0613071058105910511F030E019
:1012900020E0F801318B208B1DC082E390E0A0E0BC
:1012A000B0E031CFEC81FD81E20FF31F74CF0E94DB
:1012B000B40FA70196010E942210613071058105CB
:1012C000910509F4CBC082E090E0D80151969C933F
:1012D0008E935097D80150968D919C915197813063
:1012E000910509F4CDC008F4BCC08230910509F421
:1012F000C0C0039709F4CFC01D830C83E6E7F1E07B
:101300004FEF2081222321F0249F212D09F02F5F10
:1013100020832181222321F0249F212D09F02F5F9A
:1013200021832281222321F0249F212D09F02F5F88
:1013300022831124AC81BD816C9111962C9130E0F7
:10134000C201821B930B70E080FDAEC0B4E0880F39
:10135000991FBA95E1F7860F971F9C01220F331F43
:10136000820F931F8D529E4F2081DC012C9321818F
:1013700011962C931197228112962C9333964F51EC
:101380002C813D812E5F3F4F3D832C83473009F0F8
:10139000B8CF0E5E1F4F2016310609F04ECF809158
:1013A000C001823009F48FC0833009F4D0C081308D
:1013B00009F03AC0E09103018E2FEE0F990BFC016A
:1013C000EE0FFF1FE80FF91FE050FF4F608170E044
:1013D0006F5F7F4F072E000C880B990B0E94B61091
:1013E0000E9420110E94851060938F0110E005E596
:1013F000B0E5FB2E80918F01181708F061C02F2DEA
:10140000209F020E20E0211D112480E0822F809574
:1014100089832A831B82BE016F5F7F4F812F0E94C9
:10142000AE001F5F103131F70E9455010F900F90F1
:101430000F900F900F90DF91CF911F910F91FF9020
:10144000EF90DF90CF90BF90AF909F908F907F9064
:101450006F905F904F903F902F90089583E090E0C1
:1014600034CFF801818190E001968F7099278183B4
:1014700043CF8C9190E001968F7099278C933CCF4D
:10148000F8018181882329F08150D80111968C932D
:1014900033CF8FE0FACFF8018081882319F0815093
:1014A000D801ECCF8FE0FCCFC301821B930BA4E0EB
:1014B000880F991FAA95E1F7861B970B01974DCFCF
:1014C00019821A82A7CFE09103018E2FEE0F990B9C
:1014D000FC01EE0FFF1FE80FF91FE050FF4F618185
:1014E0006150770B072E000C880B990B0E94B610E9
:1014F0000E9420110E94851060938F0110E007E088
:1015000075E5F72EE0E2EE2E80918F011817B0F00E
:101510009701239F020E20E0211D112480E01982F3
:10152000822F80958A832B83BE016F5F7F4F812F2F
:101530000E94AE001F5F113139F776CF19821A82EF
:101540001B82BE016F5F7F4F802F811BF1CFE09127
:1015500003018E2FEE0F990BFC01EE0FFF1FE80F1A
:10156000F91FE050FF4F628170E06F5F7F4F072EE1
:10157000000C880B990B0E94B6100E9420110E944B
:10158000851060938F0110E035E5F32E00EB4AEAF9
:10159000E42E5BEAD52E80918F011817F8F4202FE6
:1015A0003F2D239F020E20E0211D112480E0202FDB
:1015B0003E2D239F020E20E0211D112419828D2D26
:1015C000821B8A832B5A2B83BE016F5F7F4F812F33
:1015D0000E94AE001F5F1031F1F626CF19821A82E9
:1015E0001B82F2CFCF93DF9380910401882369F1AE
:1015F0000E944108D0E0C0E0E09103018E2FEE0F81
:10160000990BFC01EE0FFF1FE80FF91FE050FF4F91
:1016100080818C171D0669F064F0C093D30461E0EB
:1016200070E080E090E00E9417010E94550128962A
:10163000E3CF8093D30462E070E080E090E00E940A
:101640001701DF91CF910C9455010E944108E09160
:1016500003018E2FEE0F990BFC01EE0FFF1FE80F19
:10166000F91FE050FF4FC081D0E0C930D10564F0D0
:10167000C093D30461E070E080E090E00E94170125
:101680000E9455012897F1CF0E949D00D4CF1F9250
:101690000F920FB60F9211248F939F93AF93BF9326
:1016A0008091970190919801A0919901B0919A0130
:1016B0008093970190939801A0939901B0939A0118
:1016C0008091960196E6980F9D37F0F490939601DD
:1016D00080919B0190919C01A0919D01B0919E01F0
:1016E0000196A11DB11D80939B0190939C01A09335
:1016F0009D01B0939E01BF91AF919F918F910F90EB
:101700000FBE0F901F90189587518093960180917E
:10171000970190919801A0919901B0919A01019639
:10172000A11DB11D8093970190939801A0939901F9
:10173000B0939A01CDCF8FEF8093D3041092D5044C
:101740001092D4041092DF041092DE048FEF9FEF0A
:10175000DC018093DA049093DB04A093DC04B09363
:10176000DD0410921E0510921F05109220051092A4
:101770002105109222051092230582E08093150521
:101780008CE390E0909317058093160584EF91E029
:10179000909319058093180580E991E090931D05B9
:1017A00080931C058CE291E090931B0580931A05B1
:1017B000809113058F798F7780931305909114058D
:1017C0009E7F9093140552985A9A8F7780931305B1
:1017D00052985A9A8F7D8093130584EA90E09093F3
:1017E000110580931005809105019091060145E057
:1017F00058E0849F9001859F300D949F300D1124F7
:10180000275E394C249FC001259F900D349F900D79
:101810001124875E994C909306018093050184EA18
:1018200090E0A0EEB4E020E135E0FC014591559157
:10183000659174916C9311965C93119712964C93E9
:101840001297049613962A173B0779F70895F89490
:1018500082E880937A0083E084BD85BD80916E002C
:10186000816080936E0091E0909380008BE0809384
:1018700081009093B00084E08093B1001092C10089
:1018800078948091B201811144C01092A401109209
:10189000A3018FEF8093A7018093A8018093A901F2
:1018A0008093AA018093AB018093AC019093AD012A
:1018B0001092AF011092AE011092A6011092A501F4
:1018C0008091CD019091CE01892B31F481EA91E094
:1018D0009093CE018093CD01E0919F01F091A00102
:1018E000309721F081EA91E09583848381EA91E049
:1018F0009093A00180939F011092B1011092B001CA
:101900008FE191E09093A2018093A10181E0809307
:10191000B201539A83ED91E09093A4018093A301C7
:1019200080E091E09093AF018093AE018091D60466
:101930009091D704A091D804B091D904843C29E0B7
:101940009207A105B10520F484EC99E0A0E0B0E095
:101950008093D6049093D704A093D804B093D9046D
:10196000CFEFC093D30489E793E09093DF04809393
:10197000DE0488E893E1A0E0B0E08093DA0490937D
:10198000DB04A093DC04B093DD040E949D000E9460
:10199000550184E690E090931D0580931C0584EF2B
:1019A00091E090931B0580931A0590E080E00E94DF
:1019B0003F08863649F410920301C093000188EC79
:1019C000809301018093020179E1C72EDD24D39435
:1019D000E0E0EE2EE0E0FE2EBB24B394F3E0AF2E69
:1019E000A2E09A2E0E9441080E946702809114058D
:1019F00080FD0E9467028091120584FF10C09091C3
:101A00001F05913061F4209104018F7E80931205AF
:101A1000222309F4DFC1109204010E94F20A80918E
:101A20000401882309F4A0C18091140580FD0E945F
:101A300067028091120584FF26C090911F059230A5
:101A400011F58F7E80931205809103018F5F181628
:101A50000CF4C3C180930301E09103018E2FEE0FBC
:101A6000990BFC01EE0FFF1FE80FF91FE050FF4F2D
:101A700080818093D3040E949D0061E070E080E04B
:101A800090E00E9417018091140580FD0E9467027A
:101A90008091120584FF25C090911F05933009F5B0
:101AA0008F7E8093120580910301815087FD98C13C
:101AB00080930301E09103018E2FEE0F990BFC013F
:101AC000EE0FFF1FE80FF91FE050FF4F808180935A
:101AD000D3040E949D0061E070E080E090E00E94ED
:101AE00017018091140580FD0E9467028091120504
:101AF00084FF56C08F7E8093120580911F0585302C
:101B000009F071C190E080E00E943F08863629F01C
:101B100066E690E080E00E943D0881E090E00E944F
:101B20003F0860910301262F062E000C330B82170D
:101B3000130621F081E090E00E943D088BE090E0E8
:101B40000E943F0860910001861721F08BE090E031
:101B50000E943D088CE090E00E943F0860910101E6
:101B6000861721F08CE090E00E943D088DE090E027
:101B70000E943F0860910201861721F08DE090E0FD
:101B80000E943D08109204010E94F20A68EC70E085
:101B900080E090E00E941701B09204010E94F20AD6
:101BA0008091140580FD0E94670280911205982F94
:101BB000907E903251F48F71809312058091C10113
:101BC0008D258093C101B092C0018091140580FDE4
:101BD0000E94670280911205982F907E903451F4F4
:101BE0008F71809312058091BF018D258093BF0175
:101BF0009092C0018091140580FD0E94670280913F
:101C00001205982F907E903651F48F7180931205B3
:101C10008091BE018D258093BE01A092C00180916C
:101C2000140580FD0E94670200910301002E000C44
:101C3000110B80911305E801CC0FDD1F82FF6EC0F0
:101C40000E94490140902005509021056090220596
:101C500070902305AB01BC01441955096609770949
:101C600080911C0590911D05B0E0A0E04817590730
:101C70006A077B0708F452C00E944901609320055F
:101C80007093210580932205909323058090C001D5
:101C9000882009F443C00E9449016093BA017093FF
:101CA000BB018093BC019093BD0182E0881609F4CA
:101CB000ADC023E0821609F4D9C081E088122EC09D
:101CC000FE01E00FF11FE050FF4F20814091C10164
:101CD00050E0440F551F41505109822F6C2D0E9436
:101CE0008811682F70E06F5F7F4F469FC001479F4C
:101CF000900D569F900D1124820F911D18161906F4
:101D00000CF082C08F3F910519F014F08FEF90E036
:101D1000FE01E00FF11FE050FF4F80830E94490158
:101D20004090BA015090BB016090BC017090BD0121
:101D30006419750986099709693E73408105910503
:101D400060F01092C0010E9449016093BA01709343
:101D5000BB018093BC019093BD01C00FD11FC05047
:101D6000DF4F88818093D3048091C601882359F185
:101D700080910401882339F10E9449010091C20138
:101D80001091C3012091C4013091C5016017710702
:101D900082079307C0F0809103018F3F09F096C03E
:101DA0008F5F809303010E949D000E944901605E45
:101DB000714B8F4F9F4F6093C2017093C30180930B
:101DC000C4019093C501E114F10409F40BCE0E9403
:101DD000000008CE9093040120CE109203013CCE67
:101DE0001092030167CE843009F0DACE8091C601EB
:101DF0008D258093C6011092C2011092C3011092EA
:101E0000C4011092C501CCCE81E082CFFE01E00F6B
:101E1000F11FE050FF4F21814091BF0150E0440F7E
:101E2000551F41505109822F6C2D0E948811682F37
:101E300070E06F5F7F4F469FC001479F900D569F98
:101E4000900D1124820F911D181619066CF48F3F06
:101E5000910519F014F08FEF90E0FE01E00FF11FF3
:101E6000E050FF4F81835ACF81E0F7CFFE01E00FB2
:101E7000F11FE050FF4F22814091BE0150E0440F1E
:101E8000551F41505109822F6C2D0E948811682FD7
:101E900070E06F5F7F4F469FC001479F900D569F38
:101EA000900D1124820F911D181619066CF48F3FA6
:101EB000910519F014F08FEF90E0FE01E00FF11F93
:101EC000E050FF4F82832ACF81E0F7CF80E069CFD7
:101ED0008F929F92AF92BF92CF92DF92EF92FF923A
:101EE000CF93DF93EC01688179818A819B816115B1
:101EF00071058105910521F464E279ED8BE597E0A8
:101F00002DE133EF41E050E00E94221049015A01D7
:101F10009B01AC01A7EAB1E40E9441106B017C0176
:101F2000ACEEB4EFA50194010E944F10C60ED71E6F
:101F3000E81EF91EF7FE06C081E0C81AD108E108C4
:101F400080E8F80AC882D982EA82FB82C701B6011A
:101F50009F77DF91CF91FF90EF90DF90CF90BF9070
:101F6000AF909F908F9008958F929F92AF92BF9263
:101F7000CF92DF92EF92FF9260910701709108017A
:101F80008091090190910A01611571058105910502
:101F900021F464E279ED8BE597E02DE133EF41E048
:101FA00050E00E94221049015A019B01AC01A7EAAE
:101FB000B1E40E9441106B017C01ACEEB4EFA501CD
:101FC00094010E944F10C60ED71EE81EF91EF7FEA0
:101FD00006C081E0C81AD108E10880E8F80AC0927A
:101FE0000701D0920801E0920901F0920A01C701AD
:101FF000B6019F77FF90EF90DF90CF90BF90AF90AA
:102000009F908F90089560930701709308018093CB
:10201000090190930A010895F999FECF92BD81BDFF
:10202000F89A992780B50895262FF999FECF1FBAFF
:1020300092BD81BD20BD0FB6F894FA9AF99A0FBEF1
:1020400001960895052E97FB1EF400940E94391006
:1020500057FD07D00E94541007FC03D04EF40C9497
:10206000391050954095309521953F4F4F4F5F4F18
:10207000089590958095709561957F4F8F4F9F4FF4
:1020800008950E947610A59F900DB49F900DA49F77
:10209000800D911D11240895B7FF0C9441100E94EA
:1020A0004110821B930B0895A1E21A2EAA1BBB1BA1
:1020B000FD010DC0AA1FBB1FEE1FFF1FA217B30714
:1020C000E407F50720F0A21BB30BE40BF50B661F2A
:1020D000771F881F991F1A9469F7609570958095EE
:1020E00090959B01AC01BD01CF010895A29FB00165
:1020F000B39FC001A39F700D811D1124911DB29F3C
:10210000700D811D1124911D08950E94F91088F011
:102110009F5798F0B92F9927B751B0F0E1F0660FAB
:10212000771F881F991F1AF0BA95C9F714C0B130EC
:1021300091F00E941311B1E008950C941311672FD0
:10214000782F8827B85F39F0B93FCCF3869577951B
:102150006795B395D9F73EF4909580957095619504
:102160007F4F8F4F9F4F0895E89409C097FB3EF42F
:1021700090958095709561957F4F8F4F9F4F9923D4
:10218000A9F0F92F96E9BB279395F6958795779552
:102190006795B795F111F8CFFAF4BB0F11F460FF12
:1021A0001BC06F5F7F4F8F4F9F4F16C0882311F06A
:1021B00096E911C0772321F09EE8872F762F05C07E
:1021C000662371F096E8862F70E060E02AF09A9519
:1021D000660F771F881FDAF7880F9695879597F90E
:1021E000089557FD9058440F551F59F05F3F71F007
:1021F0004795880F97FB991F61F09F3F79F087956E
:102200000895121613061406551FF2CF4695F1DFF6
:1022100008C0161617061806991FF1CF8695710586
:10222000610508940895E894BB2766277727CB01BA
:1022300097F9089519F416F40C946E110C9460112A
:102240000E94F910B8F39923C9F3B6F39F57550BC1
:1022500087FF0E9471110024A0E640EA9001805897
:102260005695979528F4805C660F771F881F20F09D
:1022700026173707480730F4621B730B840B20299D
:1022800031294A2BA69517940794202531254A27F2
:1022900058F7660F771F881F20F026173707480763
:1022A00030F4620B730B840B200D311D411DA09582
:1022B00081F7B901842F9158880F969587950895D5
:1022C0009F3F31F0915020F4879577956795B795AA
:1022D000880F911D9695879597F908959FEF80EC4B
:1022E000089591505040660F771F881FD2F70895C8
:1022F000DB018F939F930E944110BF91AF91A29FEA
:10230000800D911DA39F900DB29F900D11240895F3
:10231000991B79E004C0991F961708F0961B881F37
:102320007A95C9F78095089597FB072E16F40094C7
:1023300007D077FD09D00E94AF1107FC05D03EF40D
:10234000909581959F4F0895709561957F4F089561
:102350000E947610B7FF0895821B930B0895AA1B65
:10236000BB1B51E107C0AA1FBB1FA617B70710F080
:10237000A61BB70B881F991F5A95A9F780959095B2
:10238000BC01CD010895EE0FFF1F0590F491E02DE3
:10239000099481E090E0F8940C94CE11F894FFCF6A
:1023A0000A1E0A0A01390501000000000000003B76
:1023B000083B083B0817081308100800000000CD70
:0E23C000078907870717081308F300A6040013
:00000001FF
