:100000000C9491000C94B9000C94B9000C94B900B4
:100010000C94B9000C94B9000C94B9000C94B9007C
:100020000C94B9000C94B9000C94B9000C94B9006C
:100030000C94B9000C94B9000C94B9000C94B9005C
:100040000C94560A0C94B9000C94B9000C94B900A5
:100050000C94B9000C94B9000C94B9000C94B9003C
:100060000C94B9000C94B90005A84CCDB2D44EB98B
:100070003836A9020C50B9918688083CA6AAAA2A4B
:10008000BE000000803F0000000023002600290081
:100090000000000800020100000304070000000047
:1000A0000000000000000000250028002B000000D8
:1000B0000000240027002A000404040404040404AB
:1000C0000202020202020303030303030102040803
:1000D00010204080010204081020010204081020B2
:1000E000AB0055007C0084004B00B5001B00E50010
:1000F0000017E8000047B8000077AB0000ABAB008A
:100100000055AB000022DD000E00F2003E00C200F0
:1001100071008F00A1005F00D0002F00F9070000E0
:10012000A00A11241FBECFEFD8E0DEBFCDBF11E083
:10013000A0E0B1E0EAE2F3E202C005900D92A03344
:10014000B107D9F722E0A0E3B1E001C01D92A638C3
:10015000B207E1F710E0C1E9D0E004C02197FE0149
:100160000E948811C039D107C9F70E947B0B0C94FB
:1001700093110C94000080EC90E025E731E040E022
:10018000D90180FF03C001C04D934D938250E0F729
:100190009040D0F7C901089580E991E008953FB7F4
:1001A000F89480913C0190913D01A0913E01B09165
:1001B0003F0126B5A89B05C02F3F19F00196A11D50
:1001C000B11D3FBFBA2FA92F982F8827BC01CD01A1
:1001D000620F711D811D911D42E0660F771F881F00
:1001E000991F4A95D1F708958F929F92AF92BF922F
:1001F000CF92DF92EF92FF924B015C010E94CF0001
:100200006B017C010E94CF006C197D098E099F094A
:10021000683E734081059105A8F328EEC20E23E0E5
:10022000D21EE11CF11C8A9489288A288B2829F087
:10023000812C912C54018394E5CFFF90EF90DF90B7
:10024000CF90BF90AF909F908F9008952FB7F89464
:10025000609138017091390180913A0190913B0190
:100260002FBF0895CF92DF92EF92FF921F93CF930B
:10027000DF93182FC62FD42F0E9426016B017C011B
:1002800020E0312FA8E1B1E00E94B60E9B01AC0145
:10029000C701B6010E943D11892F96FD8095E82F78
:1002A000EF738F7096FD8F5FE695E695E695E670A5
:1002B000F0E0E85DFE4F2181289F202D812D112443
:1002C00022952F708295807F282B8081280F97FDA3
:1002D00021953D2F3C1B2058239F020E20E0211D1D
:1002E00011248C2F820FDF91CF911F91FF90EF90FF
:1002F000DF90CF9008950F931F933091750236FDD4
:1003000040C08091770290E0FC01E057FF4F2491BC
:10031000FC01E453FF4F4491FC01E854FF4FE4918A
:1003200090E080E0EE23E1F0222359F0233009F43D
:10033000E6C008F0D9C0213009F4E7C0223009F442
:10034000E8C0F0E0EE0FFF1FEA57FF4FA591B49110
:10035000EC914E2351E020E009F450E0852F922FDC
:1003600035FB222720F937FB332730F9232731E0EB
:100370008327817082279091740280FB90F990937B
:1003800074028091740280FFF9C082FDF7C081FD84
:10039000CDC08260809374020E9426016093820225
:1003A00070938302809384029093850280917402FB
:1003B00080FD2BC082FF6DC08B7F8093740283FD14
:1003C00005C0809180028F5F8093800280917402CB
:1003D000877F80937402809175028160809375029B
:1003E0000E942601609382027093830280938402AC
:1003F00090938502809175028B7F8093750283FFB5
:1004000004C0877F8061809375028091740282FFAF
:1004100040C080FF3EC00E942601009182021091E0
:1004200083022091840230918502AB01BC01401B04
:10043000510B620B730B80917A0290917B02B0E0BA
:10044000A0E0481759076A077B0718F180917402EA
:1004500083FD1FC08771909180029F5F9295990FD5
:10046000907E8860892B8093740210928002109293
:100470008102809175028460877F809375020E945B
:10048000260160938202709383028093840290938A
:1004900085020E9426010091820210918302209120
:1004A000840230918502AB01BC01401B510B620BF1
:1004B000730B80917C0290917D02B0E0A0E0481720
:1004C00059076A077B0768F080918002882349F00A
:1004D00080938102109280028091740280618093E7
:1004E00074021F910F9108952730B1F02830D1F098
:1004F000243009F026CF809180008F7D03C0809149
:1005000080008F77809380001CCF84B58F7784BD67
:1005100018CF84B58F7DFBCF8091B0008F7780930B
:10052000B0000FCF8091B0008F7DF9CF0E942601DF
:100530000091820210918302209184023091850201
:10054000AB01BC01401B510B620B730B8091780215
:1005500090917902B0E0A0E0481759076A077B073D
:1005600008F424CF80917402846080937402809197
:100570007502826088608093750218CF8091740242
:100580008D7F8093740212CF4F925F926F927F9211
:100590009F92AF92BF92CF92DF92EF92FF920F9312
:1005A0001F93CF93DF9300D01F92CDB7DEB7F090AB
:1005B00035028091380290913902A0913A02B091AF
:1005C0003B02892B8A2B8B2BD9F00E94CF00009104
:1005D0007101109172012091730130917401601BBF
:1005E000710B820B930B009138021091390220910C
:1005F0003A0230913B026017710782079307C8F2F5
:100600000E94CF0060937101709372018093730117
:1006100090937401E0914002F0914102309759F0BB
:1006200040913C0250913D0260913E0270913F0228
:100630008F2D0995F82E00916F01109170014F2CAC
:10064000512C712C612C0115110509F45EC0D801E3
:100650001C96EC901C97809136029091370284365C
:10066000910510F41C961C92D801ED91FC91A2808A
:10067000B38019821A821B82FF2089F1F801369615
:10068000D12CC12C2191222319F19280992001F1C2
:1006900030E050E040E02F5F3F4F4F4F5F4FC301CE
:1006A000B2010E943D119B01AC01892D90E0B0E0A8
:1006B000A0E0BC01CD016F5F7F4F8F4F9F4F0E9425
:1006C0003D11A1E0B0E0AC0FBD1FAC0DBD1D8C9382
:1006D000BFEFCB1ADB0A83E0C816D10499F6D80124
:1006E0001D964D915C911E9712966D917C919E0185
:1006F0002F5F3F4FC801F5010995D8011C96EC9278
:100700001C9714960D911C919ECF80916D01909134
:100710006E018C010F5F1F4F10936E0100936D01EE
:1007200049978CF10E9426019B01AC0188EE93E071
:10073000089FB001099F700D189F700D1124072E9E
:10074000000C880B990BC0906901D0906A01E09071
:100750006B01F0906C012C193D094E095F090E9454
:10076000940E309337022093360210926E0110924D
:100770006D010E9426016093690170936A01809364
:100780006B0190936C010F900F900F90DF91CF91C0
:100790001F910F91FF90EF90DF90CF90BF90AF909F
:1007A0009F907F906F905F904F9008950F931F934D
:1007B000CF93DF93209136012F5F322F3770309324
:1007C000360120FF2BC020E831FD2064347009F091
:1007D0002062205FFC01EC01239600E011E06485BB
:1007E000662329F070E0C8010E9459116F5F61878C
:1007F000322F369F030E30E0311D1124311110C00D
:100800001682662311F0615061873196EC17FD075F
:1008100031F7DF91CF911F910F91089520E0D4CF50
:1008200031503683EECF4F925F926F927F928F92CC
:10083000AF92BF92CF92DF92EF920F931F93CF931D
:10084000DF933C01EB010E94CF00F3012785308943
:10085000621B730B6A307105B0F3F894E881F9817B
:100860007BB178606BB1677F6BB9CA848F812C2DA7
:10087000281B822F2F83BF844A805B801D850C85B7
:10088000DE841F5F0F5FD3949E813885A984EB843B
:100890004181D20120E0C32F522F322F31814427D2
:1008A00088943111380F08F43FEF8195889410FD3A
:1008B000430F4795889411FD430F4795889412FD87
:1008C000430F4795889413FD430F4795889414FD73
:1008D000430F4795889415FD430F4795889416FD5F
:1008E000430F4795889417FD430F47958894232F0E
:1008F0001111242F8C0D422F002C7BB900C047FF13
:100900006BB930812227889400C000C0002C6BB9DD
:100910003111390F00C0002C7BB900C046FF6BB904
:1009200008F43FEF9195889400C000C0002C6BB98B
:1009300000FD230F00C0002C7BB900C045FF6BB940
:100940002795889401FD230F00C000C0002C6BB9CF
:100950002795889400C0002C7BB900C044FF6BB978
:1009600002FD230F2795889400C000C0002C6BB9AE
:1009700003FD230F00C0002C7BB900C043FF6BB9FF
:100980002795889404FD230F00C000C0002C6BB98C
:100990002795889400C0002C7BB900C042FF6BB93A
:1009A00005FD230F2795889400C000C0002C6BB96B
:1009B00006FD230F00C0002C7BB900C041FF6BB9BE
:1009C0002795889407FD230F00C000C0002C6BB949
:1009D0002795889400C0002C7BB900C040FF6BB9FC
:1009E000432F0111422F9A0D00C000C0002C6BB99B
:1009F00000C000C0002C7BB900C047FF6BB932813A
:100A00002227889400C000C0002C6BB931113C0F24
:100A100000C0002C7BB900C046FF6BB908F43FEF63
:100A2000EB0DF11D00C000C0002C6BB9D0FC230FF2
:100A300000C0002C7BB900C045FF6BB92795889496
:100A4000D1FC230F00C000C0002C6BB927958894FF
:100A500000C0002C7BB900C044FF6BB9D2FC230F4F
:100A60002795889400C000C0002C6BB9D3FC230FDD
:100A700000C0002C7BB900C043FF6BB92795889458
:100A8000D4FC230F00C000C0002C6BB927958894BC
:100A900000C0002C7BB900C042FF6BB9D5FC230F0E
:100AA0002795889400C000C0002C6BB9D6FC230F9A
:100AB00000C0002C7BB900C041FF6BB9279588941A
:100AC000D7FC230F00C000C0002C6BB92795889479
:100AD00000C0002C7BB900C040FF6BB9432FD11080
:100AE000422FC19500C000C0002C6BB9CE0D00C0D4
:100AF00000C07BB900C047FF6BB9318122278894C1
:100B000000C000C0002C6BB93111380F00C0002CA0
:100B10007BB900C046FF6BB908F43FEF819588941C
:100B200000C000C0002C6BB910FD230F00C0002CCA
:100B30007BB900C045FF6BB92795889411FD230F41
:100B400000C000C0002C6BB92795889400C0002C11
:100B50007BB900C044FF6BB912FD230F2795889421
:100B600000C000C0002C6BB913FD230F00C0002C87
:100B70007BB900C043FF6BB92795889414FD230F00
:100B800000C000C0002C6BB92795889400C0002CD1
:100B90007BB900C042FF6BB915FD230F27958894E0
:100BA00000C000C0002C6BB916FD230F00C0002C44
:100BB0007BB900C041FF6BB92795889417FD230FBF
:100BC00000C000C0002C6BB92795889400C0002C91
:100BD0007BB900C040FF6BB9432F1111422F8C0D20
:100BE00000C000C0002C6BB9119709F086CE20EE32
:100BF00031E0D2010E946D11DC01CB01F4E0B69529
:100C0000A79597958795FA95D1F730E020E0B9013F
:100C1000EAE94E9E040C611D5E9E600D711D11245B
:100C2000650D711D860F971FA11DB11D893E43E003
:100C30009407A105B10508F434C0885E9340A1096A
:100C4000B10942E0B695A795979587954A95D1F752
:100C500047E0849F080E211D949F200D311D112413
:100C6000290F311D6091350170E0860F971F820FAB
:100C7000931F409138015091390160913A01709170
:100C80003B01292F3327420F531F611D711D4093D4
:100C900038015093390160933A0170933B0180937E
:100CA000350178940E94CF00F301708B6787DF9144
:100CB000CF911F910F91EF90DF90CF90BF90AF90A9
:100CC0008F907F906F905F904F900895539A089502
:100CD0000F931F93CF93DF93CDB7DEB762970FB615
:100CE000F894DEBF0FBECDBF8C01F901DC011C966C
:100CF0008C917A8369835C834B835E834D8390817F
:100D00009D8791819E8792819F878130F1F4CE01EA
:100D100001960E94D60383E0888B1A8A198AD8012B
:100D2000ED91FC910484F585E02DBE016F5F7F4F4E
:100D3000C801099562960FB6F894DEBF0FBECDBF0D
:100D4000DF91CF911F910F9108951C861B861A8603
:100D5000198618861F82DFCF0F931F93CF93DF93DF
:100D6000CDB7DEB762970FB6F894DEBF0FBECDBF2A
:100D70008C01F901DC011C968C917A8369835C8378
:100D80004B835E834D8390819D8791819E87928165
:100D90009F878130E9F4CE0101960E94D603188A1C
:100DA0001A8A198AD801ED91FC910484F585E02D09
:100DB000BE016F5F7F4FC801099562960FB6F89428
:100DC000DEBF0FBECDBFDF91CF911F910F91089570
:100DD0001C861B861A86198618861F82E0CFDA01C8
:100DE000883018F5683008F570E027E030E0261B01
:100DF000370B482F50E020FD19C0C90163E0880F70
:100E0000991F6A95E1F7840F951FFC01EE0FFF1FF4
:100E1000E80FF91FEB58FE4F8C91808311968C914F
:100E20001197818312968C918283089588E090E0D7
:100E3000861B970B33E0880F991F3A95E1F7841BC7
:100E4000950B0197E2CF90E080E00895FC01858545
:100E500096850895CF93DF9300D000D000D0CDB712
:100E6000DEB7AB011C821D821E82DC01ED91FC917C
:100E70000190F081E02D19821A821B829E012F5F62
:100E80003F4FBE016C5F7F4F099526960FB6F894D1
:100E9000DEBF0FBECDBFDF91CF9108950E948E11AE
:100EA0002F923F924F925F926F927F928F929F927A
:100EB000AF92BF92CF92DF92EF92FF920F931F9368
:100EC000CF93DF93CDB7DEB762970FB6F894DEBF4E
:100ED0000FBECDBF80910301882309F4EEC10E94AB
:100EE000260100913101109132012091330130919E
:100EF0003401AB01BC01401B510B620B730B109111
:100F0000630182E390E0A0E0B0E0193178F0812F36
:100F1000012E000C990BFC01EE0FFF1FE80FF91FCB
:100F2000E050FF4F818190E0B0E0A0E04817590702
:100F30006A077B0708F4C1C10E9426016093310152
:100F4000709332018093330190933401812F012EED
:100F5000000C990B111170C14AEF66EE82E090E02F
:100F60000E943201382FE5E7F1E085E392E020812D
:100F7000239F020E20E0211D20832181239F020E4A
:100F800020E0211D21832281239F020E20E0211DCC
:100F90002283112433968E179F0749F704E010E04F
:100FA000E0917202F091730285919591A591B491AF
:100FB000A88B998B8A8B0E9426019B01AC0160E073
:100FC00070E986E090E00E943D11692F70E090E0AA
:100FD00080E00E946D0F20E030E0A9010E94C60E63
:100FE0000E94320F0E943E0FAB01609FC001519FD3
:100FF000D00120E0509F900DA11DB21F419F900D88
:10100000A11DB21F1124840F951FA21FB21FBD0185
:1010100090E080E00E946D0F20E030E040E050E47E
:101020000E94C60E6B017C0146E062E086E090E023
:101030000E943201682E682F70E090E080E00E94EC
:101040006D0F4B015C01C701B6010E94370F072EDF
:10105000000C880B990B0E946F0F9B01AC01C7011C
:10106000B6010E94C50E20E030E04FE753E40E9435
:101070003A100E943E0F762E662D70E090E080E0E0
:101080000E946F0F9B01AC01C501B4010E94C50E07
:1010900020E030E04FE753E40E943A100E943E0FF8
:1010A000262F209530E0D9011196472D409550E02C
:1010B000A49FC001A59F900DB49F900D1124820F95
:1010C000931F9983872D90E0A89FF001A99FF00DB1
:1010D000B89FF00D11242E0F3F1F3A8370E0FB01E3
:1010E00031964E9F90014F9F300D5E9F300D112421
:1010F000260F371F3B838E9F90018F9F300D9E9F41
:10110000300D1124620F731F7C83CE0101969987E5
:101110008887312C212C922D91709A871B86EA8525
:10112000FB85BF01FF0F880B990B0E946F0FA70172
:1011300096010E94C60E0E94370F2B01B1017595D2
:101140006795072E000C880B990B0E946F0FA50165
:1011500094010E94C60E0E94370F6C877D878E8790
:101160009F874C855D85552787E090E0841B950B14
:101170009201332780FD4FC073E0880F991F7A9545
:10118000E1F7820F931F8034910508F051C09C0154
:10119000220F331F820F931FFC01EB58FE4F20815B
:1011A000818190E0B0E0A0E0BA2FA92F982F882786
:1011B000A22B2281822BE885F9852191F987E88786
:1011C000F889F29FA00111246A2F650F08F46FEFD0
:1011D0003989239FA0011124492F450F08F44FEFAF
:1011E0005A89259F90011124582F530F08F45FEF5F
:1011F0006D834E835F83AE014B5F5F4F6C85842DA3
:101200000E94EF068FEF281A380A94E0291631045D
:1012100009F081CFC5CE88E090E0841B950B63E098
:10122000880F991F6A95E1F7821B930B0197ABCF4B
:1012300080E090E0DC01BFCF20916101223009F411
:1012400058C0233009F496C02130A9F5FC01EE0FF7
:10125000FF1FE80FF91FE050FF4F608170E06F5FE4
:101260007F4F072E000C880B990B0E946F0F0E9476
:10127000AD100E943E0F6093300110E005E5B0E52F
:10128000FB2E80913001181788F52F2D209F020E1C
:1012900020E0211D112480E0822F809589832A83FC
:1012A0001B82AE014F5F5F4F60E0812F0E94EF060F
:1012B0001F5F183031F70E94C40262960FB6F8948F
:1012C000DEBF0FBECDBFDF91CF911F910F91FF9079
:1012D000EF90DF90CF90BF90AF909F908F907F90D6
:1012E0006F905F904F903F902F90089519821A82CF
:1012F000D7CFFC01EE0FFF1FE80FF91FE050FF4FA3
:1013000061816150770B072E000C880B990B0E94AE
:101310006F0F0E94AD100E943E0F6093300110E0ED
:1013200007E075E5F72EE0E2EE2E80913001181708
:10133000B8F09701239F020E20E0211D112480E0C8
:101340001982822F80958A832B83AE014F5F5F4F76
:1013500060E0812F0E94EF061F5F193031F7ABCF9D
:1013600019821A821B82AE014F5F5F4F60E0802FAF
:10137000811BF0CFFC01EE0FFF1FE80FF91FE050BB
:10138000FF4F628170E06F5F7F4F072E000C880B6C
:10139000990B0E946F0F0E94AD100E943E0F609348
:1013A000300110E035E5F32E00EB4AEAE42E5BEA6B
:1013B000D52E80913001181700F5202F5F2D259F25
:1013C000020E20E0211D112480E0202F3E2D239FBE
:1013D000020E20E0211D112419828D2D821B8A838B
:1013E0002B5A2B83AE014F5F5F4F60E0812F0E942D
:1013F000EF061F5F1830E9F65ECF19821A821B8252
:10140000F1CFCF93DF9380910301882369F10E948C
:101410005007D0E0C0E0E09163018E2FEE0F990BF2
:10142000FC01EE0FFF1FE80FF91FE050FF4F808116
:101430008C171D0669F064F0C093350261E070E01E
:1014400080E090E00E94F4000E94C4022896E3CF5E
:101450008093350262E070E080E090E00E94F4004A
:10146000DF91CF910C94C4020E945007E091630178
:101470008E2FEE0F990BFC01EE0FFF1FE80FF91FE7
:10148000E050FF4FC081D0E0C930D10564F0C09377
:10149000350261E070E080E090E00E94F4000E947C
:1014A000C4022897F1CF0E94BB00D4CF1F920F92A5
:1014B0000FB60F9211242F933F938F939F93AF9367
:1014C000BF938091380190913901A0913A01B09178
:1014D0003B013091370123E0230F2D3758F501965A
:1014E000A11DB11D209337018093380190933901DC
:1014F000A0933A01B0933B0180913C0190913D0152
:10150000A0913E01B0913F010196A11DB11D8093B4
:101510003C0190933D01A0933E01B0933F01BF91E8
:10152000AF919F918F913F912F910F900FBE0F9090
:101530001F90189526E8230F0296A11DB11DD2CF4A
:10154000CF93DF938FEF8093350210923702109282
:10155000360210924102109240028FEF9FEFDC01A1
:1015600080933C0290933D02A0933E02B0933F02D1
:1015700010928002109281021092820210928302D5
:10158000109284021092850282E0809377028CE3AD
:1015900090E0909379028093780284EF91E09093A9
:1015A0007B0280937A0280E991E090937F0280939E
:1015B0007E028CE291E090937D0280937C02809188
:1015C00075028F798F7780937502809176028E7F76
:1015D00080937602EEECF0E02491EAEBF0E0849167
:1015E0008823C1F090E0880F991FFC01E255FF4F5E
:1015F000C591D491FC01EC55FF4FA591B4919FB7D3
:10160000F8943881822F809583238883EC91E22B94
:10161000EC939FBF809175028F77809375028091C4
:10162000770290E0FC01E453FF4F249188549F4FD0
:10163000FC0184918823C1F090E0880F991FFC0180
:10164000E255FF4FC591D491FC01EC55FF4FA59198
:10165000B4919FB7F8943881822F80958323888333
:10166000EC91E22BEC939FBF809175028F7D80936C
:10167000750280EE90E090937302809372028091E5
:1016800004019091050145E058E0849F9001859FF9
:10169000300D949F300D1124275E394C249FC001DA
:1016A000259F900D349F900D1124875E994C909347
:1016B0000501809304014FEF60E081E090E00E941B
:1016C000320180EE90E0A2E4B2E022E732E0FC01D9
:1016D00045915591659174916C9311965C93119716
:1016E00012964C931297049613962A173B0779F794
:1016F000DF91CF910895789484B5826084BD84B5DC
:10170000816084BD85B5826085BD85B5816085BDFC
:1017100080916E00816080936E00109281008091B4
:10172000810082608093810080918100816080933C
:101730008100809180008160809380008091B10061
:1017400084608093B1008091B00081608093B0008C
:1017500080917A00846080937A0080917A00826020
:1017600080937A0080917A00816080937A008091E2
:101770007A00806880937A001092C10080915301B2
:10178000811145C010924501109244018FEF809362
:1017900048018093490180934A0180934B018093D3
:1017A0004C0180934D0181E080934E0110925001D5
:1017B00010924F01109247011092460180916F01E3
:1017C00090917001892B31F482E491E09093700143
:1017D00080936F01E0914001F0914101309721F039
:1017E00082E491E09583848382E491E090934101C7
:1017F0008093400110925201109251018AE191E0D0
:10180000909343018093420181E080935301539A66
:1018100085E791E0909345018093440180E490E056
:101820009093500180934F0180913802909139023A
:10183000A0913A02B0913B02843C29E09207A105B5
:10184000B10520F484EC99E0A0E0B0E08093380288
:1018500090933902A0933A02B0933B02CFEFC0932A
:1018600035020E94BB000E94C40284E690E090937F
:101870007F0280937E0284EF91E090937D028093BB
:101880007C0290E080E00E94810E863649F410923E
:101890006301C0930001C093010181E080930201C4
:1018A000E9E1CE2EDD24D394F0E0EF2EF0E0FF2E20
:1018B000AA24A394A3E09A2EB2E08B2E0E94500794
:1018C0000E947B018091760280FD0E947B018091C5
:1018D000740284FF10C090918102913061F42091D4
:1018E00003018F7E80937402222309F49DC110921C
:1018F00003010E94010AB0900301BB2009F460C1FA
:101900008091760280FD0E947B018091740284FFA9
:1019100027C090918102923019F5909163018F7EDA
:101920008093740281E0890F18160CF480C18093B3
:101930006301E09163018E2FEE0F990BFC01EE0F16
:10194000FF1FE80FF91FE050FF4F808180933502A1
:101950000E94BB0061E070E080E090E00E94F40033
:101960008091760280FD0E947B018091740284FF49
:1019700026C090918102933011F5909163018F7E82
:10198000809374028FEF890F87FD54C180936301A8
:10199000E09163018E2FEE0F990BFC01EE0FFF1FFC
:1019A000E80FF91FE050FF4F8081809335020E94BD
:1019B000BB0061E070E080E090E00E94F400809164
:1019C000760280FD0E947B018091740284FF14C026
:1019D0008F7E8093740280918102843069F48091BB
:1019E00068018D2580936801109264011092650151
:1019F00010926601109267018091760280FD0E942C
:101A00007B0180917402982F907E903251F48F71F7
:101A100080937402809162018D2580936201A0926F
:101A200061018091760280FD0E947B0180917402A9
:101A3000982F907E903451F48F718093740280912E
:101A400060018D2580936001809261018091760212
:101A500080FD0E947B0180917402982F907E9036C9
:101A600051F48F718093740280915F018D25809372
:101A70005F01909261018091760280FD0E947B015E
:101A800000916301002E000C110B80917502E8019A
:101A9000CC0FDD1F82FF6EC00E94260140908202A3
:101AA000509083026090840270908502AB01BC016B
:101AB000441955096609770980917E0290917F0249
:101AC000B0E0A0E0481759076A077B0708F452C046
:101AD0000E942601609382027093830280938402A5
:101AE0009093850270906101772009F443C00E94B1
:101AF000260160935B0170935C0180935D0190937C
:101B00005E0182E0781609F49AC023E0721609F4A7
:101B1000C6C081E078122EC0FE01E00FF11FE05038
:101B2000FF4FE0812091620130E0220F331F2150EE
:101B300031098E2F6C2D0E944D11482F50E04F5FC0
:101B40005F4F249FC001259F900D349F900D11245D
:101B50008E0F911D181619060CF06FC08F3F91055E
:101B600019F014F08FEF90E0FE01E00FF11FE0504C
:101B7000FF4F80830E94260140905B0150905C01E2
:101B800060905D0170905E0164197509860997097E
:101B9000693E73408105910560F0109261010E94D9
:101BA000260160935B0170935C0180935D019093CB
:101BB0005E01C00FD11FC050DF4F88818093350276
:101BC00080916801882349F1BB2039F10E942601E8
:101BD00000916401109165012091660130916701C7
:101BE0006017710782079307C0F0809163018F3FF0
:101BF00009F085C08F5F809363010E94BB000E9443
:101C00002601605E714B8F4F9F4F6093640170930C
:101C100065018093660190936701E114F10409F472
:101C20004DCE0E9400004ACE9093030162CE1092E6
:101C300063017FCE10926301ABCE81E095CFFE01B0
:101C4000E00FF11FE050FF4FE1812091600130E093
:101C5000220F331F215031098E2F6C2D0E944D1100
:101C6000482F50E04F5F5F4F249FC001259F900D8C
:101C7000349F900D11248E0F911D181619066CF4C7
:101C80008F3F910519F014F08FEF90E0FE01E00F07
:101C9000F11FE050FF4F81836DCF81E0F7CFFE0150
:101CA000E00FF11FE050FF4FE28120915F0130E033
:101CB000220F331F215031098E2F6C2D0E944D11A0
:101CC000482F50E04F5F5F4F249FC001259F900D2C
:101CD000349F900D11248E0F911D181619066CF467
:101CE0008F3F910519F014F08FEF90E0FE01E00FA7
:101CF000F11FE050FF4F82833DCF81E0F7CF80E0BE
:101D00007ACFF999FECF92BD81BDF89A992780B517
:101D100008950E94B60EA59F900DB49F900DA49FAC
:101D2000800D911D11240895A1E21A2EAA1BBB1B40
:101D3000FD010DC0AA1FBB1FEE1FFF1FA217B30797
:101D4000E407F50720F0A21BB30BE40BF50B661FAD
:101D5000771F881F991F1A9469F760957095809571
:101D600090959B01AC01BD01CF010895A29FB001E8
:101D7000B39FC001A39F700D811D1124911DB29FBF
:101D8000700D811D1124911D08955058BB27AA275D
:101D90000E94DD0E0C94EC0F0E94B30F38F00E94ED
:101DA000BA0F20F039F49F3F19F426F40C94B00FC9
:101DB0000EF4E095E7FB0C94AA0FE92F0E94111096
:101DC00058F3BA17620773078407950720F079F470
:101DD000A6F50C9433100EF4E0950B2EBA2FA02D1F
:101DE0000B01B90190010C01CA01A0011124FF27C8
:101DF000591B99F0593F50F4503E68F11A16F040C3
:101E0000A22F232F342F4427585FF3CF46953795C1
:101E10002795A795F0405395C9F77EF41F16BA0B86
:101E2000620B730B840BBAF09150A1F0FF0FBB1F34
:101E3000661F771F881FC2F70EC0BA0F621F731F7D
:101E4000841F48F4879577956795B795F7959E3FDA
:101E500008F0B0CF9395880F08F09927EE0F97956B
:101E6000879508950E94C30FE3950C94FD0F0E947F
:101E70003E0F6894B1110C94341008950E9419100B
:101E800088F09F5798F0B92F9927B751B0F0E1F03B
:101E9000660F771F881F991F1AF0BA95C9F714C0EB
:101EA000B13091F00E943310B1E008950C943310DA
:101EB000672F782F8827B85F39F0B93FCCF3869524
:101EC00077956795B395D9F73EF490958095709581
:101ED00061957F4F8F4F9F4F0895E89409C097FBFE
:101EE0003EF490958095709561957F4F8F4F9F4FF1
:101EF0009923A9F0F92F96E9BB279395F695879535
:101F000077956795B795F111F8CFFAF4BB0F11F4F7
:101F100060FF1BC06F5F7F4F8F4F9F4F16C088239E
:101F200011F096E911C0772321F09EE8872F762FD4
:101F300005C0662371F096E8862F70E060E02AF015
:101F40009A95660F771F881FDAF7880F9695879501
:101F500097F9089597F99F6780E870E060E0089529
:101F60009FEF80EC089500240A94161617061806B1
:101F70000906089500240A9412161306140605068D
:101F800008950C94B00F0E941910D8F3E894E0E083
:101F9000BB279F57F0F02AED3FE049EC06C0EE0F5B
:101FA000BB0F661F771F881F28F0B23A62077307BE
:101FB000840728F0B25A620B730B840BE3959A9551
:101FC00072F7803830F49A95BB0F661F771F881F11
:101FD000D2F790480C94EF10092E0394000C11F4E2
:101FE000882352F0BB0F40F4BF2B11F460FF04C0F4
:101FF0006F5F7F4F8F4F9F4F0895EF93E0FF07C0B4
:10200000A2EA2AED3FE049EC5FEB0E94DD0E0E9460
:10201000EC0F0F90039401FC9058E8E6F0E00C946C
:10202000021157FD9058440F551F59F05F3F71F052
:102030004795880F97FB991F61F09F3F79F087952F
:102040000895121613061406551FF2CF4695F1DFB8
:1020500008C0161617061806991FF1CF8695710548
:10206000610508940895E894BB2766277727CB017C
:1020700097F908950E944D100C94EC0F0E94B30F35
:1020800038F00E94BA0F20F0952311F00C94AA0F9B
:102090000C94B00F11240C9434100E94111070F3A2
:1020A000959FC1F3950F50E0551F629FF001729FFD
:1020B000BB27F00DB11D639FAA27F00DB11DAA1F0C
:1020C000649F6627B00DA11D661F829F2227B00D59
:1020D000A11D621F739FB00DA11D621F839FA00DE4
:1020E000611D221F749F3327A00D611D231F849F34
:1020F000600D211D822F762F6A2F11249F5750408B
:102100009AF0F1F088234AF0EE0FFF1FBB1F661F05
:10211000771F881F91505040A9F79E3F510580F0CE
:102120000C94AA0F0C9434105F3FE4F3983ED4F360
:10213000869577956795B795F795E7959F5FC1F772
:10214000FE2B880F911D9695879597F9089519F4A0
:1021500016F40C94B00F0C94ED100E941910B8F303
:102160009923C9F3B6F39F57550B87FF0E94FB10C5
:102170000024A0E640EA900180585695979528F4EF
:10218000805C660F771F881F20F0261737074807E7
:1021900030F4621B730B840B202931294A2BA6953E
:1021A00017940794202531254A2758F7660F771F83
:1021B000881F20F026173707480730F4620B730B8F
:1021C000840B200D311D411DA09581F7B901842F8D
:1021D0009158880F9695879508959F3F31F09150BB
:1021E00020F4879577956795B795880F911D9695FB
:1021F000879597F9089591505040660F771F881F73
:10220000D2F708959F938F937F936F93FF93EF93EC
:102210009B01AC010E943A10EF91FF910E941611B0
:102220002F913F914F915F910C943A10DF93CF9390
:102230001F930F93FF92EF92DF927B018C016894C2
:1022400006C0DA2EEF010E944D10FE01E894A59120
:102250002591359145915591A6F3EF010E94DD0E30
:10226000FE019701A801DA9469F7DF90EF90FF90E3
:102270000F911F91CF91DF910895DB018F939F9371
:102280000E94890EBF91AF91A29F800D911DA39FC7
:10229000900DB29F900D11240895991B79E004C010
:1022A000991F961708F0961B881F7A95C9F7809595
:1022B000089597FB072E16F4009407D077FD09D0F8
:1022C0000E94741107FC05D03EF4909581959F4FB4
:1022D0000895709561957F4F08950E94B60EB7FFDF
:1022E0000895821B930B0895AA1BBB1B51E107C0E5
:1022F000AA1FBB1FA617B70710F0A61BB70B881F96
:10230000991F5A95A9F780959095BC01CD01089524
:10231000EE0FFF1F0590F491E02D099481E090E00D
:0A232000F8940C949311F894FFCF89
:10232A00FFFF01013905000000004E074E074E0766
:10233A002A072607230700000000AC06680666067F
:10234A002A072607CC001304003131295A1B750AC3
:00000001FF
